{
  "contractName": "Blacklist",
  "abi": [
    {
      "inputs": [
        {
          "internalType": "address",
          "name": "_owner",
          "type": "address"
        }
      ],
      "payable": false,
      "stateMutability": "nonpayable",
      "type": "constructor"
    },
    {
      "anonymous": false,
      "inputs": [
        {
          "indexed": false,
          "internalType": "address",
          "name": "adder",
          "type": "address"
        },
        {
          "indexed": false,
          "internalType": "address",
          "name": "user",
          "type": "address"
        }
      ],
      "name": "OneBadUserAdd",
      "type": "event"
    },
    {
      "anonymous": false,
      "inputs": [
        {
          "indexed": false,
          "internalType": "address",
          "name": "adder",
          "type": "address"
        },
        {
          "indexed": false,
          "internalType": "address",
          "name": "user",
          "type": "address"
        }
      ],
      "name": "OneBadUserDel",
      "type": "event"
    },
    {
      "anonymous": false,
      "inputs": [
        {
          "indexed": false,
          "internalType": "address",
          "name": "adder",
          "type": "address"
        },
        {
          "indexed": false,
          "internalType": "address",
          "name": "user",
          "type": "address"
        }
      ],
      "name": "OneGoodUserAdd",
      "type": "event"
    },
    {
      "anonymous": false,
      "inputs": [
        {
          "indexed": false,
          "internalType": "address",
          "name": "adder",
          "type": "address"
        },
        {
          "indexed": false,
          "internalType": "address",
          "name": "user",
          "type": "address"
        }
      ],
      "name": "OneGoodUserDel",
      "type": "event"
    },
    {
      "constant": true,
      "inputs": [
        {
          "internalType": "address",
          "name": "",
          "type": "address"
        }
      ],
      "name": "bad",
      "outputs": [
        {
          "internalType": "uint256",
          "name": "",
          "type": "uint256"
        }
      ],
      "payable": false,
      "stateMutability": "view",
      "type": "function"
    },
    {
      "constant": true,
      "inputs": [
        {
          "internalType": "uint256",
          "name": "",
          "type": "uint256"
        }
      ],
      "name": "badusers",
      "outputs": [
        {
          "internalType": "address",
          "name": "",
          "type": "address"
        }
      ],
      "payable": false,
      "stateMutability": "view",
      "type": "function"
    },
    {
      "constant": true,
      "inputs": [
        {
          "internalType": "address",
          "name": "",
          "type": "address"
        }
      ],
      "name": "good",
      "outputs": [
        {
          "internalType": "uint256",
          "name": "",
          "type": "uint256"
        }
      ],
      "payable": false,
      "stateMutability": "view",
      "type": "function"
    },
    {
      "constant": true,
      "inputs": [],
      "name": "owner",
      "outputs": [
        {
          "internalType": "address",
          "name": "",
          "type": "address"
        }
      ],
      "payable": false,
      "stateMutability": "view",
      "type": "function"
    },
    {
      "constant": false,
      "inputs": [
        {
          "internalType": "address",
          "name": "oneuser",
          "type": "address"
        }
      ],
      "name": "addGoodUser",
      "outputs": [],
      "payable": false,
      "stateMutability": "nonpayable",
      "type": "function"
    },
    {
      "constant": false,
      "inputs": [
        {
          "internalType": "address",
          "name": "oneuser",
          "type": "address"
        }
      ],
      "name": "deleteGoodUser",
      "outputs": [],
      "payable": false,
      "stateMutability": "nonpayable",
      "type": "function"
    },
    {
      "constant": false,
      "inputs": [
        {
          "internalType": "address",
          "name": "oneuser",
          "type": "address"
        }
      ],
      "name": "addBadUser",
      "outputs": [],
      "payable": false,
      "stateMutability": "nonpayable",
      "type": "function"
    },
    {
      "constant": false,
      "inputs": [
        {
          "internalType": "address",
          "name": "oneuser",
          "type": "address"
        }
      ],
      "name": "deleteBadUser",
      "outputs": [],
      "payable": false,
      "stateMutability": "nonpayable",
      "type": "function"
    },
    {
      "constant": true,
      "inputs": [],
      "name": "getBadUsers",
      "outputs": [
        {
          "internalType": "address[]",
          "name": "",
          "type": "address[]"
        }
      ],
      "payable": false,
      "stateMutability": "view",
      "type": "function"
    }
  ],
  "bytecode": "0x608060405234801561001057600080fd5b50604051610dc4380380610dc48339818101604052602081101561003357600080fd5b8101908080519060200190929190505050806000806101000a81548173ffffffffffffffffffffffffffffffffffffffff021916908373ffffffffffffffffffffffffffffffffffffffff16021790555060018060008373ffffffffffffffffffffffffffffffffffffffff1673ffffffffffffffffffffffffffffffffffffffff1681526020019081526020016000208190555050610cec806100d86000396000f3fe608060405234801561001057600080fd5b50600436106100935760003560e01c8063b25a110011610066578063b25a1100146101c9578063b428c1c51461020d578063b98e631814610265578063bf4e8d96146102a9578063f33da9691461030157610093565b8063065a5f5c146100985780630dcb29d4146100dc57806317db5436146101205780638da5cb5b1461017f575b600080fd5b6100da600480360360208110156100ae57600080fd5b81019080803573ffffffffffffffffffffffffffffffffffffffff16906020019092919050505061036f565b005b61011e600480360360208110156100f257600080fd5b81019080803573ffffffffffffffffffffffffffffffffffffffff1690602001909291905050506104f3565b005b6101286106d0565b6040518080602001828103825283818151815260200191508051906020019060200280838360005b8381101561016b578082015181840152602081019050610150565b505050509050019250505060405180910390f35b61018761075e565b604051808273ffffffffffffffffffffffffffffffffffffffff1673ffffffffffffffffffffffffffffffffffffffff16815260200191505060405180910390f35b61020b600480360360208110156101df57600080fd5b81019080803573ffffffffffffffffffffffffffffffffffffffff169060200190929190505050610783565b005b61024f6004803603602081101561022357600080fd5b81019080803573ffffffffffffffffffffffffffffffffffffffff169060200190929190505050610a77565b6040518082815260200191505060405180910390f35b6102a76004803603602081101561027b57600080fd5b81019080803573ffffffffffffffffffffffffffffffffffffffff169060200190929190505050610a8f565b005b6102eb600480360360208110156102bf57600080fd5b81019080803573ffffffffffffffffffffffffffffffffffffffff169060200190929190505050610c12565b6040518082815260200191505060405180910390f35b61032d6004803603602081101561031757600080fd5b8101908080359060200190929190505050610c2a565b604051808273ffffffffffffffffffffffffffffffffffffffff1673ffffffffffffffffffffffffffffffffffffffff16815260200191505060405180910390f35b6000809054906101000a900473ffffffffffffffffffffffffffffffffffffffff1673ffffffffffffffffffffffffffffffffffffffff163373ffffffffffffffffffffffffffffffffffffffff16146103c857600080fd5b6000600160008373ffffffffffffffffffffffffffffffffffffffff1673ffffffffffffffffffffffffffffffffffffffff168152602001908152602001600020541161041457600080fd5b6000600160008373ffffffffffffffffffffffffffffffffffffffff1673ffffffffffffffffffffffffffffffffffffffff168152602001908152602001600020819055507fbe19fb3292a9601d5edd296f3270df06d00ed381ee66db18a322b94021ca9b353382604051808373ffffffffffffffffffffffffffffffffffffffff1673ffffffffffffffffffffffffffffffffffffffff1681526020018273ffffffffffffffffffffffffffffffffffffffff1673ffffffffffffffffffffffffffffffffffffffff1681526020019250505060405180910390a150565b6000600160003373ffffffffffffffffffffffffffffffffffffffff1673ffffffffffffffffffffffffffffffffffffffff168152602001908152602001600020541161053f57600080fd5b6000600260008373ffffffffffffffffffffffffffffffffffffffff1673ffffffffffffffffffffffffffffffffffffffff168152602001908152602001600020541461058b57600080fd5b6001600260008373ffffffffffffffffffffffffffffffffffffffff1673ffffffffffffffffffffffffffffffffffffffff1681526020019081526020016000208190555060038190806001815401808255809150509060018203906000526020600020016000909192909190916101000a81548173ffffffffffffffffffffffffffffffffffffffff021916908373ffffffffffffffffffffffffffffffffffffffff160217905550507f9d0770013419bb88b394c209afda4891300efa3ce854b175f226d85073fcc1583382604051808373ffffffffffffffffffffffffffffffffffffffff1673ffffffffffffffffffffffffffffffffffffffff1681526020018273ffffffffffffffffffffffffffffffffffffffff1673ffffffffffffffffffffffffffffffffffffffff1681526020019250505060405180910390a150565b6060600380548060200260200160405190810160405280929190818152602001828054801561075457602002820191906000526020600020905b8160009054906101000a900473ffffffffffffffffffffffffffffffffffffffff1673ffffffffffffffffffffffffffffffffffffffff168152602001906001019080831161070a575b5050505050905090565b6000809054906101000a900473ffffffffffffffffffffffffffffffffffffffff1681565b6000600160003373ffffffffffffffffffffffffffffffffffffffff1673ffffffffffffffffffffffffffffffffffffffff16815260200190815260200160002054116107cf57600080fd5b6000600260008373ffffffffffffffffffffffffffffffffffffffff1673ffffffffffffffffffffffffffffffffffffffff168152602001908152602001600020541161081b57600080fd5b6000600260008373ffffffffffffffffffffffffffffffffffffffff1673ffffffffffffffffffffffffffffffffffffffff1681526020019081526020016000208190555060008090505b600160038054905003811015610984578173ffffffffffffffffffffffffffffffffffffffff166003828154811061089a57fe5b9060005260206000200160009054906101000a900473ffffffffffffffffffffffffffffffffffffffff1673ffffffffffffffffffffffffffffffffffffffff161415610977576003600160038054905003815481106108f657fe5b9060005260206000200160009054906101000a900473ffffffffffffffffffffffffffffffffffffffff166003828154811061092e57fe5b9060005260206000200160006101000a81548173ffffffffffffffffffffffffffffffffffffffff021916908373ffffffffffffffffffffffffffffffffffffffff1602179055505b8080600101915050610866565b5060036001600380549050038154811061099a57fe5b9060005260206000200160006101000a81549073ffffffffffffffffffffffffffffffffffffffff021916905560038054809190600190036109dc9190610c66565b507fa57e320a1c789a3b3f5a67f1db77fd6489478cec443500891cd89a32d91d39583382604051808373ffffffffffffffffffffffffffffffffffffffff1673ffffffffffffffffffffffffffffffffffffffff1681526020018273ffffffffffffffffffffffffffffffffffffffff1673ffffffffffffffffffffffffffffffffffffffff1681526020019250505060405180910390a150565b60026020528060005260406000206000915090505481565b6000809054906101000a900473ffffffffffffffffffffffffffffffffffffffff1673ffffffffffffffffffffffffffffffffffffffff163373ffffffffffffffffffffffffffffffffffffffff1614610ae857600080fd5b6000600160008373ffffffffffffffffffffffffffffffffffffffff1673ffffffffffffffffffffffffffffffffffffffff1681526020019081526020016000205414610b3457600080fd5b60018060008373ffffffffffffffffffffffffffffffffffffffff1673ffffffffffffffffffffffffffffffffffffffff168152602001908152602001600020819055507f29663820062eb20d90ea6d9f727959f948bff63a4f154e2f6f666e696dbe79f13382604051808373ffffffffffffffffffffffffffffffffffffffff1673ffffffffffffffffffffffffffffffffffffffff1681526020018273ffffffffffffffffffffffffffffffffffffffff1673ffffffffffffffffffffffffffffffffffffffff1681526020019250505060405180910390a150565b60016020528060005260406000206000915090505481565b60038181548110610c3757fe5b906000526020600020016000915054906101000a900473ffffffffffffffffffffffffffffffffffffffff1681565b815481835581811115610c8d57818360005260206000209182019101610c8c9190610c92565b5b505050565b610cb491905b80821115610cb0576000816000905550600101610c98565b5090565b9056fea265627a7a723158201ee18d94fac247110d1eb75d98eac6eb28ec598fac2a4243bcc59cde2d7ba4a164736f6c63430005100032",
  "source": "pragma solidity >=0.4.21 <0.7.0;\r\n\r\ncontract Blacklist {\r\n\taddress public owner;//黑名单创建者\r\n\tmapping(address => uint) public good;\r\n\tmapping(address => uint) public bad;\r\n\taddress[] public badusers;//黑名单账户\r\n\r\n\tevent OneGoodUserAdd(address adder, address user);\r\n\tevent OneGoodUserDel(address adder, address user);\r\n\tevent OneBadUserAdd(address adder, address user);\r\n\tevent OneBadUserDel(address adder, address user);\r\n\r\n\tconstructor(address _owner) public{\r\n\t\towner = _owner;\r\n\t\tgood[_owner] = 1;\r\n\t}\r\n\r\n\tfunction addGoodUser(address oneuser) public{\r\n\t\trequire(msg.sender == owner);\r\n\t\trequire(good[oneuser] == 0);\r\n\t\tgood[oneuser] = 1;\r\n\t\temit OneGoodUserAdd(msg.sender, oneuser);\r\n\t}\r\n\r\n\tfunction deleteGoodUser(address oneuser) public{\r\n\t\trequire(msg.sender == owner);\r\n\t\trequire(good[oneuser] > 0);\r\n\t\tgood[oneuser] = 0;\r\n\t\temit OneGoodUserDel(msg.sender, oneuser);\r\n\t}\r\n\r\n\tfunction addBadUser(address oneuser) public{\r\n\t\trequire(good[msg.sender] > 0);\r\n\t\trequire(bad[oneuser] == 0);\r\n\t\tbad[oneuser] = 1;\r\n\t\tbadusers.push(oneuser);\r\n\t\temit OneBadUserAdd(msg.sender, oneuser);\r\n\t}\r\n\r\n\tfunction deleteBadUser(address oneuser) public{\r\n\t\trequire(good[msg.sender] > 0);\r\n\t\trequire(bad[oneuser] > 0);\r\n\t\tbad[oneuser] = 0;\r\n\t\tfor (uint i = 0; i < badusers.length - 1; i++){\r\n\t\t\tif(badusers[i] == oneuser){\r\n\t\t\t\tbadusers[i] = badusers[badusers.length - 1];\r\n\t\t\t}\r\n\t\t}\r\n\t\tdelete badusers[badusers.length - 1];\r\n\t\tbadusers.length--;\r\n\t\temit OneBadUserDel(msg.sender, oneuser);\r\n\t}\r\n\r\n\tfunction getBadUsers() public view returns (address[] memory) {\r\n\t\treturn badusers;\r\n\t}\r\n}",
  "sourcePath": "C:\\Users\\Administrator\\Desktop\\mydapp\\contracts\\Blacklist.sol",
  "compiler": {
    "name": "solc",
    "version": "0.5.16+commit.9c3226ce.Emscripten.clang"
  },
  "schemaVersion": "3.0.23",
  "updatedAt": "2020-04-13T10:51:20.484Z",
  "networkType": "ethereum",
  "devdoc": {
    "methods": {}
  },
  "userdoc": {
    "methods": {}
  }
}