{
  "contractName": "Fundraising2",
  "abi": [
    {
      "inputs": [
        {
          "internalType": "address payable",
          "name": "_beneficiary",
          "type": "address"
        },
        {
          "internalType": "uint256",
          "name": "_target",
          "type": "uint256"
        },
        {
          "internalType": "uint256",
          "name": "_time",
          "type": "uint256"
        }
      ],
      "payable": false,
      "stateMutability": "nonpayable",
      "type": "constructor"
    },
    {
      "anonymous": false,
      "inputs": [
        {
          "indexed": false,
          "internalType": "address",
          "name": "participant",
          "type": "address"
        },
        {
          "indexed": false,
          "internalType": "uint256",
          "name": "money",
          "type": "uint256"
        }
      ],
      "name": "OneDonate",
      "type": "event"
    },
    {
      "constant": true,
      "inputs": [],
      "name": "beneficiary",
      "outputs": [
        {
          "internalType": "address payable",
          "name": "",
          "type": "address"
        }
      ],
      "payable": false,
      "stateMutability": "view",
      "type": "function"
    },
    {
      "constant": true,
      "inputs": [],
      "name": "endTime",
      "outputs": [
        {
          "internalType": "uint256",
          "name": "",
          "type": "uint256"
        }
      ],
      "payable": false,
      "stateMutability": "view",
      "type": "function"
    },
    {
      "constant": true,
      "inputs": [],
      "name": "ftype",
      "outputs": [
        {
          "internalType": "uint256",
          "name": "",
          "type": "uint256"
        }
      ],
      "payable": false,
      "stateMutability": "view",
      "type": "function"
    },
    {
      "constant": true,
      "inputs": [],
      "name": "isCancel",
      "outputs": [
        {
          "internalType": "bool",
          "name": "",
          "type": "bool"
        }
      ],
      "payable": false,
      "stateMutability": "view",
      "type": "function"
    },
    {
      "constant": true,
      "inputs": [],
      "name": "money",
      "outputs": [
        {
          "internalType": "uint256",
          "name": "",
          "type": "uint256"
        }
      ],
      "payable": false,
      "stateMutability": "view",
      "type": "function"
    },
    {
      "constant": true,
      "inputs": [
        {
          "internalType": "address",
          "name": "",
          "type": "address"
        }
      ],
      "name": "p_money",
      "outputs": [
        {
          "internalType": "uint256",
          "name": "",
          "type": "uint256"
        }
      ],
      "payable": false,
      "stateMutability": "view",
      "type": "function"
    },
    {
      "constant": true,
      "inputs": [
        {
          "internalType": "uint256",
          "name": "",
          "type": "uint256"
        }
      ],
      "name": "participants",
      "outputs": [
        {
          "internalType": "address",
          "name": "",
          "type": "address"
        }
      ],
      "payable": false,
      "stateMutability": "view",
      "type": "function"
    },
    {
      "constant": true,
      "inputs": [],
      "name": "restMoney",
      "outputs": [
        {
          "internalType": "uint256",
          "name": "",
          "type": "uint256"
        }
      ],
      "payable": false,
      "stateMutability": "view",
      "type": "function"
    },
    {
      "constant": true,
      "inputs": [],
      "name": "target",
      "outputs": [
        {
          "internalType": "uint256",
          "name": "",
          "type": "uint256"
        }
      ],
      "payable": false,
      "stateMutability": "view",
      "type": "function"
    },
    {
      "constant": false,
      "inputs": [],
      "name": "donate",
      "outputs": [],
      "payable": true,
      "stateMutability": "payable",
      "type": "function"
    },
    {
      "constant": false,
      "inputs": [],
      "name": "withdraw",
      "outputs": [],
      "payable": false,
      "stateMutability": "nonpayable",
      "type": "function"
    },
    {
      "constant": false,
      "inputs": [],
      "name": "cancel",
      "outputs": [],
      "payable": false,
      "stateMutability": "nonpayable",
      "type": "function"
    },
    {
      "constant": false,
      "inputs": [],
      "name": "drawback",
      "outputs": [],
      "payable": false,
      "stateMutability": "nonpayable",
      "type": "function"
    },
    {
      "constant": true,
      "inputs": [],
      "name": "getTarget",
      "outputs": [
        {
          "internalType": "uint256",
          "name": "",
          "type": "uint256"
        }
      ],
      "payable": false,
      "stateMutability": "view",
      "type": "function"
    },
    {
      "constant": true,
      "inputs": [],
      "name": "getMoney",
      "outputs": [
        {
          "internalType": "uint256",
          "name": "",
          "type": "uint256"
        }
      ],
      "payable": false,
      "stateMutability": "view",
      "type": "function"
    },
    {
      "constant": true,
      "inputs": [],
      "name": "getIsCancel",
      "outputs": [
        {
          "internalType": "bool",
          "name": "",
          "type": "bool"
        }
      ],
      "payable": false,
      "stateMutability": "view",
      "type": "function"
    },
    {
      "constant": true,
      "inputs": [],
      "name": "getBeneficiary",
      "outputs": [
        {
          "internalType": "address",
          "name": "",
          "type": "address"
        }
      ],
      "payable": false,
      "stateMutability": "view",
      "type": "function"
    },
    {
      "constant": true,
      "inputs": [],
      "name": "getRestTime",
      "outputs": [
        {
          "internalType": "uint256",
          "name": "",
          "type": "uint256"
        }
      ],
      "payable": false,
      "stateMutability": "view",
      "type": "function"
    },
    {
      "constant": true,
      "inputs": [],
      "name": "getParticipantNum",
      "outputs": [
        {
          "internalType": "uint256",
          "name": "",
          "type": "uint256"
        }
      ],
      "payable": false,
      "stateMutability": "view",
      "type": "function"
    }
  ],
  "bytecode": "0x6080604052600260065534801561001557600080fd5b50604051610c68380380610c688339818101604052606081101561003857600080fd5b81019080805190602001909291908051906020019092919080519060200190929190505050826000806101000a81548173ffffffffffffffffffffffffffffffffffffffff021916908373ffffffffffffffffffffffffffffffffffffffff16021790555081600281905550804201600181905550600060038190555060006004819055506000600560006101000a81548160ff021916908315150217905550505050610b7e806100ea6000396000f3fe6080604052600436106101145760003560e01c8063565a2e2c116100a0578063ed88c68e11610064578063ed88c68e14610421578063ee305fc81461042b578063f00e6a2a14610456578063f5a48b6e14610481578063fc178a58146104ac57610114565b8063565a2e2c14610332578063919e19b81461038957806398e1b410146103b4578063d4b83992146103df578063ea8a1af01461040a57610114565b80633818f0c2116100e75780633818f0c21461020557806338af3eed1461026a5780633ccfd60b146102c1578063474a30b0146102d85780634ddd108a1461030757610114565b80631cb36442146101195780632409dfa2146101485780633197cbb61461015f57806335c1d3491461018a575b600080fd5b34801561012557600080fd5b5061012e6104d7565b604051808215151515815260200191505060405180910390f35b34801561015457600080fd5b5061015d6104ea565b005b34801561016b57600080fd5b50610174610681565b6040518082815260200191505060405180910390f35b34801561019657600080fd5b506101c3600480360360208110156101ad57600080fd5b8101908080359060200190929190505050610687565b604051808273ffffffffffffffffffffffffffffffffffffffff1673ffffffffffffffffffffffffffffffffffffffff16815260200191505060405180910390f35b34801561021157600080fd5b506102546004803603602081101561022857600080fd5b81019080803573ffffffffffffffffffffffffffffffffffffffff1690602001909291905050506106c3565b6040518082815260200191505060405180910390f35b34801561027657600080fd5b5061027f6106db565b604051808273ffffffffffffffffffffffffffffffffffffffff1673ffffffffffffffffffffffffffffffffffffffff16815260200191505060405180910390f35b3480156102cd57600080fd5b506102d6610700565b005b3480156102e457600080fd5b506102ed6107f7565b604051808215151515815260200191505060405180910390f35b34801561031357600080fd5b5061031c61080e565b6040518082815260200191505060405180910390f35b34801561033e57600080fd5b50610347610814565b604051808273ffffffffffffffffffffffffffffffffffffffff1673ffffffffffffffffffffffffffffffffffffffff16815260200191505060405180910390f35b34801561039557600080fd5b5061039e61083d565b6040518082815260200191505060405180910390f35b3480156103c057600080fd5b506103c9610843565b6040518082815260200191505060405180910390f35b3480156103eb57600080fd5b506103f461084d565b6040518082815260200191505060405180910390f35b34801561041657600080fd5b5061041f610853565b005b6104296108e3565b005b34801561043757600080fd5b50610440610b0c565b6040518082815260200191505060405180910390f35b34801561046257600080fd5b5061046b610b19565b6040518082815260200191505060405180910390f35b34801561048d57600080fd5b50610496610b23565b6040518082815260200191505060405180910390f35b3480156104b857600080fd5b506104c1610b43565b6040518082815260200191505060405180910390f35b600560009054906101000a900460ff1681565b600560009054906101000a900460ff16806105155750600154421180156105145750600254600354105b5b61051e57600080fd5b6000600760003373ffffffffffffffffffffffffffffffffffffffff1673ffffffffffffffffffffffffffffffffffffffff168152602001908152602001600020541161056a57600080fd5b3373ffffffffffffffffffffffffffffffffffffffff166108fc600760003373ffffffffffffffffffffffffffffffffffffffff1673ffffffffffffffffffffffffffffffffffffffff168152602001908152602001600020549081150290604051600060405180830381858888f193505050501580156105ef573d6000803e3d6000fd5b50600760003373ffffffffffffffffffffffffffffffffffffffff1673ffffffffffffffffffffffffffffffffffffffff16815260200190815260200160002054600454036004819055506000600760003373ffffffffffffffffffffffffffffffffffffffff1673ffffffffffffffffffffffffffffffffffffffff16815260200190815260200160002081905550565b60015481565b6008818154811061069457fe5b906000526020600020016000915054906101000a900473ffffffffffffffffffffffffffffffffffffffff1681565b60076020528060005260406000206000915090505481565b6000809054906101000a900473ffffffffffffffffffffffffffffffffffffffff1681565b600560009054906101000a900460ff161561071a57600080fd5b6000809054906101000a900473ffffffffffffffffffffffffffffffffffffffff1673ffffffffffffffffffffffffffffffffffffffff163373ffffffffffffffffffffffffffffffffffffffff161461077357600080fd5b6002546003541461078357600080fd5b6000809054906101000a900473ffffffffffffffffffffffffffffffffffffffff1673ffffffffffffffffffffffffffffffffffffffff166108fc6004549081150290604051600060405180830381858888f193505050501580156107ec573d6000803e3d6000fd5b506000600481905550565b6000600560009054906101000a900460ff16905090565b60035481565b60008060009054906101000a900473ffffffffffffffffffffffffffffffffffffffff16905090565b60045481565b6000600354905090565b60025481565b6000809054906101000a900473ffffffffffffffffffffffffffffffffffffffff1673ffffffffffffffffffffffffffffffffffffffff163373ffffffffffffffffffffffffffffffffffffffff16146108ac57600080fd5b600560009054906101000a900460ff16156108c657600080fd5b6001600560006101000a81548160ff021916908315150217905550565b600560009054906101000a900460ff16156108fd57600080fd5b60015442111561090c57600080fd5b6002546003541061091c57600080fd5b600034905060025460035434011115610982576003546002540390503373ffffffffffffffffffffffffffffffffffffffff166108fc8234039081150290604051600060405180830381858888f19350505050158015610980573d6000803e3d6000fd5b505b80600360008282540192505081905550806004600082825401925050819055506000600760003373ffffffffffffffffffffffffffffffffffffffff1673ffffffffffffffffffffffffffffffffffffffff168152602001908152602001600020541415610a515760083390806001815401808255809150509060018203906000526020600020016000909192909190916101000a81548173ffffffffffffffffffffffffffffffffffffffff021916908373ffffffffffffffffffffffffffffffffffffffff160217905550505b80600760003373ffffffffffffffffffffffffffffffffffffffff1673ffffffffffffffffffffffffffffffffffffffff168152602001908152602001600020600082825401925050819055507f11a2020ea9a2aa81680418a8fde6d761da99acbd8bca29ef61821464b2c2c8063382604051808373ffffffffffffffffffffffffffffffffffffffff1673ffffffffffffffffffffffffffffffffffffffff1681526020018281526020019250505060405180910390a150565b6000600880549050905090565b6000600254905090565b6000600154421015610b3b5742600154039050610b40565b600090505b90565b6006548156fea265627a7a72315820ed863ad3e7ec05c88ce3bfc3562e5def0566e6f6f4d22a78c0d9f10f9edad38864736f6c63430005100032",
  "source": "pragma solidity >=0.4.21 <0.7.0;\r\n\r\ncontract Fundraising2 {\r\n\r\n    address payable public beneficiary;//募捐受益人\r\n    uint public endTime;//结束时间\r\n    uint public target;//目标金额\r\n    uint public money;//当前已获金额\r\n    uint public restMoney;//合约里的金额\r\n    bool public isCancel;//是否取消募捐\r\n    uint public ftype = 2;//定义筹款类型\r\n\r\n    mapping(address => uint) public p_money;//捐赠金额\r\n    address[] public participants;//捐赠者\r\n\r\n    event OneDonate(address participant, uint money);\r\n\r\n    constructor(address payable _beneficiary, uint _target, uint _time) public {\r\n        beneficiary = _beneficiary;\r\n        target = _target;\r\n        endTime = now + _time;\r\n        money = 0;\r\n        restMoney = 0;\r\n        isCancel = false;\r\n    }\r\n\r\n    //捐款\r\n    function donate() public payable {\r\n        require(!isCancel);\r\n        require(now <= endTime);\r\n        require(money < target);\r\n        uint realD = msg.value;\r\n        //金额超出目标时退还一部分\r\n        if (msg.value + money > target) {\r\n            realD = target - money;\r\n            msg.sender.transfer(msg.value - realD);\r\n        }\r\n        money += realD;\r\n        restMoney += realD;\r\n        if (p_money[msg.sender] == uint(0)){\r\n            participants.push(msg.sender);\r\n        }\r\n        p_money[msg.sender] += realD;\r\n        emit OneDonate(msg.sender, realD);\r\n    }\r\n\r\n    //受益人取钱\r\n    function withdraw() public {\r\n        require(!isCancel);\r\n        require(msg.sender == beneficiary);\r\n        require(money == target);\r\n        beneficiary.transfer(restMoney);\r\n        restMoney = 0;\r\n    }\r\n\r\n    //放弃募捐\r\n    function cancel() public {\r\n        require(msg.sender == beneficiary);\r\n        require(!isCancel);\r\n        isCancel = true;\r\n    }\r\n\r\n    //捐赠者退款\r\n    function drawback() public {\r\n        require((isCancel)||(now > endTime && money < target));\r\n        require(p_money[msg.sender] > 0);\r\n        \r\n        msg.sender.transfer(p_money[msg.sender]);\r\n        restMoney = restMoney - p_money[msg.sender];\r\n        p_money[msg.sender] = 0;\r\n    }\r\n\r\n    function getTarget() public view returns (uint) {\r\n        return target;\r\n    }\r\n\r\n    function getMoney() public view returns (uint) {\r\n        return money;\r\n    }\r\n\r\n    function getIsCancel() public view returns (bool) {\r\n        return isCancel;\r\n    }\r\n\r\n    function getBeneficiary() public view returns (address) {\r\n        return beneficiary;\r\n    }\r\n\r\n    function getRestTime() public view returns (uint) {\r\n    \tif (now < endTime) {\r\n    \t\treturn (endTime - now);\r\n    \t}\r\n        return 0;\r\n    }\r\n\r\n    function getParticipantNum() public view returns (uint) {\r\n        return participants.length;\r\n    }\r\n}",
  "sourcePath": "C:\\Users\\Administrator\\Desktop\\mydapp\\contracts\\Fundraising2.sol",
  "compiler": {
    "name": "solc",
    "version": "0.5.16+commit.9c3226ce.Emscripten.clang"
  },
  "schemaVersion": "3.0.23",
  "updatedAt": "2020-04-13T10:51:15.919Z",
  "devdoc": {
    "methods": {}
  },
  "userdoc": {
    "methods": {}
  }
}