{
  "contractName": "Fundraising",
  "abi": [
    {
      "inputs": [
        {
          "internalType": "address payable",
          "name": "_beneficiary",
          "type": "address"
        },
        {
          "internalType": "uint256",
          "name": "_target",
          "type": "uint256"
        },
        {
          "internalType": "uint256",
          "name": "_time",
          "type": "uint256"
        }
      ],
      "payable": false,
      "stateMutability": "nonpayable",
      "type": "constructor"
    },
    {
      "anonymous": false,
      "inputs": [
        {
          "indexed": false,
          "internalType": "address",
          "name": "participant",
          "type": "address"
        },
        {
          "indexed": false,
          "internalType": "uint256",
          "name": "money",
          "type": "uint256"
        }
      ],
      "name": "OneDonate",
      "type": "event"
    },
    {
      "constant": true,
      "inputs": [],
      "name": "beneficiary",
      "outputs": [
        {
          "internalType": "address payable",
          "name": "",
          "type": "address"
        }
      ],
      "payable": false,
      "stateMutability": "view",
      "type": "function"
    },
    {
      "constant": true,
      "inputs": [],
      "name": "endTime",
      "outputs": [
        {
          "internalType": "uint256",
          "name": "",
          "type": "uint256"
        }
      ],
      "payable": false,
      "stateMutability": "view",
      "type": "function"
    },
    {
      "constant": true,
      "inputs": [],
      "name": "ftype",
      "outputs": [
        {
          "internalType": "uint256",
          "name": "",
          "type": "uint256"
        }
      ],
      "payable": false,
      "stateMutability": "view",
      "type": "function"
    },
    {
      "constant": true,
      "inputs": [],
      "name": "isCancel",
      "outputs": [
        {
          "internalType": "bool",
          "name": "",
          "type": "bool"
        }
      ],
      "payable": false,
      "stateMutability": "view",
      "type": "function"
    },
    {
      "constant": true,
      "inputs": [],
      "name": "money",
      "outputs": [
        {
          "internalType": "uint256",
          "name": "",
          "type": "uint256"
        }
      ],
      "payable": false,
      "stateMutability": "view",
      "type": "function"
    },
    {
      "constant": true,
      "inputs": [
        {
          "internalType": "address",
          "name": "",
          "type": "address"
        }
      ],
      "name": "p_money",
      "outputs": [
        {
          "internalType": "uint256",
          "name": "",
          "type": "uint256"
        }
      ],
      "payable": false,
      "stateMutability": "view",
      "type": "function"
    },
    {
      "constant": true,
      "inputs": [
        {
          "internalType": "uint256",
          "name": "",
          "type": "uint256"
        }
      ],
      "name": "participants",
      "outputs": [
        {
          "internalType": "address",
          "name": "",
          "type": "address"
        }
      ],
      "payable": false,
      "stateMutability": "view",
      "type": "function"
    },
    {
      "constant": true,
      "inputs": [],
      "name": "restMoney",
      "outputs": [
        {
          "internalType": "uint256",
          "name": "",
          "type": "uint256"
        }
      ],
      "payable": false,
      "stateMutability": "view",
      "type": "function"
    },
    {
      "constant": true,
      "inputs": [
        {
          "internalType": "address",
          "name": "",
          "type": "address"
        }
      ],
      "name": "t_money",
      "outputs": [
        {
          "internalType": "uint256",
          "name": "",
          "type": "uint256"
        }
      ],
      "payable": false,
      "stateMutability": "view",
      "type": "function"
    },
    {
      "constant": true,
      "inputs": [],
      "name": "target",
      "outputs": [
        {
          "internalType": "uint256",
          "name": "",
          "type": "uint256"
        }
      ],
      "payable": false,
      "stateMutability": "view",
      "type": "function"
    },
    {
      "constant": false,
      "inputs": [],
      "name": "donate",
      "outputs": [],
      "payable": true,
      "stateMutability": "payable",
      "type": "function"
    },
    {
      "constant": false,
      "inputs": [],
      "name": "withdraw",
      "outputs": [],
      "payable": false,
      "stateMutability": "nonpayable",
      "type": "function"
    },
    {
      "constant": false,
      "inputs": [],
      "name": "cancel",
      "outputs": [],
      "payable": false,
      "stateMutability": "nonpayable",
      "type": "function"
    },
    {
      "constant": false,
      "inputs": [],
      "name": "drawback",
      "outputs": [],
      "payable": false,
      "stateMutability": "nonpayable",
      "type": "function"
    },
    {
      "constant": true,
      "inputs": [],
      "name": "getTarget",
      "outputs": [
        {
          "internalType": "uint256",
          "name": "",
          "type": "uint256"
        }
      ],
      "payable": false,
      "stateMutability": "view",
      "type": "function"
    },
    {
      "constant": true,
      "inputs": [],
      "name": "getMoney",
      "outputs": [
        {
          "internalType": "uint256",
          "name": "",
          "type": "uint256"
        }
      ],
      "payable": false,
      "stateMutability": "view",
      "type": "function"
    },
    {
      "constant": true,
      "inputs": [],
      "name": "getIsCancel",
      "outputs": [
        {
          "internalType": "bool",
          "name": "",
          "type": "bool"
        }
      ],
      "payable": false,
      "stateMutability": "view",
      "type": "function"
    },
    {
      "constant": true,
      "inputs": [],
      "name": "getBeneficiary",
      "outputs": [
        {
          "internalType": "address",
          "name": "",
          "type": "address"
        }
      ],
      "payable": false,
      "stateMutability": "view",
      "type": "function"
    },
    {
      "constant": true,
      "inputs": [],
      "name": "getRestTime",
      "outputs": [
        {
          "internalType": "uint256",
          "name": "",
          "type": "uint256"
        }
      ],
      "payable": false,
      "stateMutability": "view",
      "type": "function"
    },
    {
      "constant": true,
      "inputs": [],
      "name": "getParticipantNum",
      "outputs": [
        {
          "internalType": "uint256",
          "name": "",
          "type": "uint256"
        }
      ],
      "payable": false,
      "stateMutability": "view",
      "type": "function"
    }
  ],
  "bytecode": "0x6080604052600160065534801561001557600080fd5b50604051610ebf380380610ebf8339818101604052606081101561003857600080fd5b81019080805190602001909291908051906020019092919080519060200190929190505050826000806101000a81548173ffffffffffffffffffffffffffffffffffffffff021916908373ffffffffffffffffffffffffffffffffffffffff16021790555081600281905550804201600181905550600060038190555060006004819055506000600560006101000a81548160ff021916908315150217905550505050610dd5806100ea6000396000f3fe60806040526004361061011f5760003560e01c8063565a2e2c116100a0578063ed88c68e11610064578063ed88c68e14610491578063ee305fc81461049b578063f00e6a2a146104c6578063f5a48b6e146104f1578063fc178a581461051c5761011f565b8063565a2e2c146103a2578063919e19b8146103f957806398e1b41014610424578063d4b839921461044f578063ea8a1af01461047a5761011f565b806338af3eed116100e757806338af3eed146102755780633ccfd60b146102cc578063474a30b0146102e35780634c9a1176146103125780634ddd108a146103775761011f565b80631cb36442146101245780632409dfa2146101535780633197cbb61461016a57806335c1d349146101955780633818f0c214610210575b600080fd5b34801561013057600080fd5b50610139610547565b604051808215151515815260200191505060405180910390f35b34801561015f57600080fd5b5061016861055a565b005b34801561017657600080fd5b5061017f6106d6565b6040518082815260200191505060405180910390f35b3480156101a157600080fd5b506101ce600480360360208110156101b857600080fd5b81019080803590602001909291905050506106dc565b604051808273ffffffffffffffffffffffffffffffffffffffff1673ffffffffffffffffffffffffffffffffffffffff16815260200191505060405180910390f35b34801561021c57600080fd5b5061025f6004803603602081101561023357600080fd5b81019080803573ffffffffffffffffffffffffffffffffffffffff169060200190929190505050610718565b6040518082815260200191505060405180910390f35b34801561028157600080fd5b5061028a610730565b604051808273ffffffffffffffffffffffffffffffffffffffff1673ffffffffffffffffffffffffffffffffffffffff16815260200191505060405180910390f35b3480156102d857600080fd5b506102e1610755565b005b3480156102ef57600080fd5b506102f86108f4565b604051808215151515815260200191505060405180910390f35b34801561031e57600080fd5b506103616004803603602081101561033557600080fd5b81019080803573ffffffffffffffffffffffffffffffffffffffff16906020019092919050505061090b565b6040518082815260200191505060405180910390f35b34801561038357600080fd5b5061038c610923565b6040518082815260200191505060405180910390f35b3480156103ae57600080fd5b506103b7610929565b604051808273ffffffffffffffffffffffffffffffffffffffff1673ffffffffffffffffffffffffffffffffffffffff16815260200191505060405180910390f35b34801561040557600080fd5b5061040e610952565b6040518082815260200191505060405180910390f35b34801561043057600080fd5b50610439610958565b6040518082815260200191505060405180910390f35b34801561045b57600080fd5b50610464610962565b6040518082815260200191505060405180910390f35b34801561048657600080fd5b5061048f610968565b005b6104996109f8565b005b3480156104a757600080fd5b506104b0610d1d565b6040518082815260200191505060405180910390f35b3480156104d257600080fd5b506104db610d2a565b6040518082815260200191505060405180910390f35b3480156104fd57600080fd5b50610506610d34565b6040518082815260200191505060405180910390f35b34801561052857600080fd5b50610531610d54565b6040518082815260200191505060405180910390f35b600560009054906101000a900460ff1681565b600560009054906101000a900460ff1661057357600080fd5b6000600960003373ffffffffffffffffffffffffffffffffffffffff1673ffffffffffffffffffffffffffffffffffffffff16815260200190815260200160002054116105bf57600080fd5b3373ffffffffffffffffffffffffffffffffffffffff166108fc600960003373ffffffffffffffffffffffffffffffffffffffff1673ffffffffffffffffffffffffffffffffffffffff168152602001908152602001600020549081150290604051600060405180830381858888f19350505050158015610644573d6000803e3d6000fd5b50600960003373ffffffffffffffffffffffffffffffffffffffff1673ffffffffffffffffffffffffffffffffffffffff16815260200190815260200160002054600454036004819055506000600960003373ffffffffffffffffffffffffffffffffffffffff1673ffffffffffffffffffffffffffffffffffffffff16815260200190815260200160002081905550565b60015481565b600881815481106106e957fe5b906000526020600020016000915054906101000a900473ffffffffffffffffffffffffffffffffffffffff1681565b60076020528060005260406000206000915090505481565b6000809054906101000a900473ffffffffffffffffffffffffffffffffffffffff1681565b600560009054906101000a900460ff161561076f57600080fd5b6000809054906101000a900473ffffffffffffffffffffffffffffffffffffffff1673ffffffffffffffffffffffffffffffffffffffff163373ffffffffffffffffffffffffffffffffffffffff16146107c857600080fd5b6000600454116107d757600080fd5b60008090505b600a805490508110156108715760096000600a83815481106107fb57fe5b9060005260206000200160009054906101000a900473ffffffffffffffffffffffffffffffffffffffff1673ffffffffffffffffffffffffffffffffffffffff1673ffffffffffffffffffffffffffffffffffffffff1681526020019081526020016000206000905580806001019150506107dd565b50600a60006108809190610d5a565b6000809054906101000a900473ffffffffffffffffffffffffffffffffffffffff1673ffffffffffffffffffffffffffffffffffffffff166108fc6004549081150290604051600060405180830381858888f193505050501580156108e9573d6000803e3d6000fd5b506000600481905550565b6000600560009054906101000a900460ff16905090565b60096020528060005260406000206000915090505481565b60035481565b60008060009054906101000a900473ffffffffffffffffffffffffffffffffffffffff16905090565b60045481565b6000600354905090565b60025481565b6000809054906101000a900473ffffffffffffffffffffffffffffffffffffffff1673ffffffffffffffffffffffffffffffffffffffff163373ffffffffffffffffffffffffffffffffffffffff16146109c157600080fd5b600560009054906101000a900460ff16156109db57600080fd5b6001600560006101000a81548160ff021916908315150217905550565b600560009054906101000a900460ff1615610a1257600080fd5b600154421115610a2157600080fd5b60025460035410610a3157600080fd5b600034905060025460035434011115610a97576003546002540390503373ffffffffffffffffffffffffffffffffffffffff166108fc8234039081150290604051600060405180830381858888f19350505050158015610a95573d6000803e3d6000fd5b505b80600360008282540192505081905550806004600082825401925050819055506000600760003373ffffffffffffffffffffffffffffffffffffffff1673ffffffffffffffffffffffffffffffffffffffff168152602001908152602001600020541415610b665760083390806001815401808255809150509060018203906000526020600020016000909192909190916101000a81548173ffffffffffffffffffffffffffffffffffffffff021916908373ffffffffffffffffffffffffffffffffffffffff160217905550505b6000600960003373ffffffffffffffffffffffffffffffffffffffff1673ffffffffffffffffffffffffffffffffffffffff168152602001908152602001600020541415610c1557600a3390806001815401808255809150509060018203906000526020600020016000909192909190916101000a81548173ffffffffffffffffffffffffffffffffffffffff021916908373ffffffffffffffffffffffffffffffffffffffff160217905550505b80600760003373ffffffffffffffffffffffffffffffffffffffff1673ffffffffffffffffffffffffffffffffffffffff1681526020019081526020016000206000828254019250508190555080600960003373ffffffffffffffffffffffffffffffffffffffff1673ffffffffffffffffffffffffffffffffffffffff168152602001908152602001600020600082825401925050819055507f11a2020ea9a2aa81680418a8fde6d761da99acbd8bca29ef61821464b2c2c8063382604051808373ffffffffffffffffffffffffffffffffffffffff1673ffffffffffffffffffffffffffffffffffffffff1681526020018281526020019250505060405180910390a150565b6000600880549050905090565b6000600254905090565b6000600154421015610d4c5742600154039050610d51565b600090505b90565b60065481565b5080546000825590600052602060002090810190610d789190610d7b565b50565b610d9d91905b80821115610d99576000816000905550600101610d81565b5090565b9056fea265627a7a723158203462df4bcfd592e0b4df1710ab2c35752687604991652ca70da40da353423ed264736f6c63430005100032",
  "source": "pragma solidity >=0.4.21 <0.7.0;\r\n\r\ncontract Fundraising {\r\n\r\n    address payable public beneficiary;//募捐受益人\r\n    uint public endTime;//结束时间\r\n    uint public target;//目标金额\r\n    uint public money;//当前已获金额\r\n    uint public restMoney;//合约里的金额\r\n    bool public isCancel;//是否取消募捐\r\n    uint public ftype = 1;//定义筹款类型\r\n\r\n    mapping(address => uint) public p_money;//捐赠金额\r\n    address[] public participants;//捐赠者\r\n\r\n    mapping(address => uint) public t_money;//当前捐赠金额\r\n    address[] t_participants;//当前捐赠者\r\n\r\n    event OneDonate(address participant, uint money);\r\n\r\n    constructor(address payable _beneficiary, uint _target, uint _time) public {\r\n        beneficiary = _beneficiary;\r\n        target = _target;\r\n        endTime = now + _time;\r\n        money = 0;\r\n        restMoney = 0;\r\n        isCancel = false;\r\n    }\r\n\r\n    //捐款\r\n    function donate() public payable {\r\n        require(!isCancel);\r\n        require(now <= endTime);\r\n        require(money < target);\r\n        uint realD = msg.value;\r\n        //金额超出目标时退还一部分\r\n        if (msg.value + money > target) {\r\n            realD = target - money;\r\n            msg.sender.transfer(msg.value - realD);\r\n        }\r\n        money += realD;\r\n        restMoney += realD;\r\n        if (p_money[msg.sender] == uint(0)){\r\n            participants.push(msg.sender);\r\n        }\r\n        if (t_money[msg.sender] == uint(0)){\r\n            t_participants.push(msg.sender);\r\n        }\r\n        p_money[msg.sender] += realD;\r\n        t_money[msg.sender] += realD;\r\n        emit OneDonate(msg.sender, realD);\r\n    }\r\n\r\n    //受益人取钱\r\n    function withdraw() public {\r\n        require(!isCancel);\r\n        require(msg.sender == beneficiary);\r\n        require(restMoney > 0);\r\n        for(uint i = 0; i < t_participants.length; i++) {\r\n            delete t_money[t_participants[i]];\r\n        }\r\n        delete t_participants;\r\n        beneficiary.transfer(restMoney);\r\n        restMoney = 0;\r\n    }\r\n\r\n    //放弃募捐\r\n    function cancel() public {\r\n        require(msg.sender == beneficiary);\r\n        require(!isCancel);\r\n        isCancel = true;\r\n    }\r\n\r\n    //捐赠者退款\r\n    function drawback() public {\r\n        require(isCancel);\r\n        require(t_money[msg.sender] > 0);\r\n        \r\n        msg.sender.transfer(t_money[msg.sender]);\r\n        restMoney = restMoney - t_money[msg.sender];\r\n        t_money[msg.sender] = 0;\r\n    }\r\n\r\n    function getTarget() public view returns (uint) {\r\n        return target;\r\n    }\r\n\r\n    function getMoney() public view returns (uint) {\r\n        return money;\r\n    }\r\n\r\n    function getIsCancel() public view returns (bool) {\r\n        return isCancel;\r\n    }\r\n\r\n    function getBeneficiary() public view returns (address) {\r\n        return beneficiary;\r\n    }\r\n\r\n    function getRestTime() public view returns (uint) {\r\n    \tif (now < endTime) {\r\n    \t\treturn (endTime - now);\r\n    \t}\r\n        return 0;\r\n    }\r\n\r\n    function getParticipantNum() public view returns (uint) {\r\n        return participants.length;\r\n    }\r\n}",
  "sourcePath": "C:\\Users\\Administrator\\Desktop\\mydapp\\contracts\\Fundraising.sol",
  "compiler": {
    "name": "solc",
    "version": "0.5.16+commit.9c3226ce.Emscripten.clang"
  },
  "schemaVersion": "3.0.23",
  "updatedAt": "2020-04-13T10:51:15.907Z",
  "devdoc": {
    "methods": {}
  },
  "userdoc": {
    "methods": {}
  }
}